{
  "contractName": "Conference",
  "abi": [
    {
      "constant": true,
      "inputs": [
        {
          "name": "",
          "type": "address"
        }
      ],
      "name": "registrantsPaid",
      "outputs": [
        {
          "name": "",
          "type": "uint256"
        }
      ],
      "payable": false,
      "stateMutability": "view",
      "type": "function",
      "signature": "0x13381fbf"
    },
    {
      "constant": true,
      "inputs": [],
      "name": "organizer",
      "outputs": [
        {
          "name": "",
          "type": "address"
        }
      ],
      "payable": false,
      "stateMutability": "view",
      "type": "function",
      "signature": "0x61203265"
    },
    {
      "constant": true,
      "inputs": [],
      "name": "quota",
      "outputs": [
        {
          "name": "",
          "type": "uint256"
        }
      ],
      "payable": false,
      "stateMutability": "view",
      "type": "function",
      "signature": "0xcebe09c9"
    },
    {
      "constant": true,
      "inputs": [],
      "name": "numRegistrants",
      "outputs": [
        {
          "name": "",
          "type": "uint256"
        }
      ],
      "payable": false,
      "stateMutability": "view",
      "type": "function",
      "signature": "0xec3a6f73"
    },
    {
      "anonymous": false,
      "inputs": [
        {
          "indexed": false,
          "name": "_from",
          "type": "address"
        },
        {
          "indexed": false,
          "name": "_amount",
          "type": "uint256"
        }
      ],
      "name": "Deposit",
      "type": "event",
      "signature": "0xe1fffcc4923d04b559f4d29a8bfc6cda04eb5b0d3c460751c2402c5c5cc9109c"
    },
    {
      "anonymous": false,
      "inputs": [
        {
          "indexed": false,
          "name": "_to",
          "type": "address"
        },
        {
          "indexed": false,
          "name": "_amount",
          "type": "uint256"
        }
      ],
      "name": "Refund",
      "type": "event",
      "signature": "0xbb28353e4598c3b9199101a66e0989549b659a59a54d2c27fbb183f1932c8e6d"
    },
    {
      "constant": false,
      "inputs": [],
      "name": "conference",
      "outputs": [],
      "payable": false,
      "stateMutability": "nonpayable",
      "type": "function",
      "signature": "0xc5f36ac1"
    },
    {
      "constant": false,
      "inputs": [],
      "name": "buyTicket",
      "outputs": [],
      "payable": true,
      "stateMutability": "payable",
      "type": "function",
      "signature": "0xedca914c"
    },
    {
      "constant": true,
      "inputs": [],
      "name": "say",
      "outputs": [
        {
          "name": "",
          "type": "string"
        }
      ],
      "payable": false,
      "stateMutability": "pure",
      "type": "function",
      "signature": "0x954ab4b2"
    },
    {
      "constant": true,
      "inputs": [
        {
          "name": "name",
          "type": "string"
        }
      ],
      "name": "print",
      "outputs": [
        {
          "name": "",
          "type": "string"
        }
      ],
      "payable": false,
      "stateMutability": "pure",
      "type": "function",
      "signature": "0x11114af1"
    },
    {
      "constant": false,
      "inputs": [
        {
          "name": "newquota",
          "type": "uint256"
        }
      ],
      "name": "changeQuota",
      "outputs": [],
      "payable": false,
      "stateMutability": "nonpayable",
      "type": "function",
      "signature": "0xa977c71e"
    },
    {
      "constant": false,
      "inputs": [
        {
          "name": "recipient",
          "type": "address"
        },
        {
          "name": "amount",
          "type": "uint256"
        }
      ],
      "name": "refundTicket",
      "outputs": [],
      "payable": false,
      "stateMutability": "nonpayable",
      "type": "function",
      "signature": "0x705099b9"
    },
    {
      "constant": false,
      "inputs": [],
      "name": "destroy",
      "outputs": [],
      "payable": false,
      "stateMutability": "nonpayable",
      "type": "function",
      "signature": "0x83197ef0"
    }
  ],
  "bytecode": "0x608060405234801561001057600080fd5b50610918806100206000396000f3fe6080604052600436106100af576000357c0100000000000000000000000000000000000000000000000000000000900463ffffffff16806311114af1146100b457806313381fbf146101f5578063612032651461025a578063705099b9146102b157806383197ef01461030c578063954ab4b214610323578063a977c71e146103b3578063c5f36ac1146103ee578063cebe09c914610405578063ec3a6f7314610430578063edca914c1461045b575b600080fd5b3480156100c057600080fd5b5061017a600480360360208110156100d757600080fd5b81019080803590602001906401000000008111156100f457600080fd5b82018360208201111561010657600080fd5b8035906020019184600183028401116401000000008311171561012857600080fd5b91908080601f016020809104026020016040519081016040528093929190818152602001838380828437600081840152601f19601f820116905080830192505050505050509192919290505050610465565b6040518080602001828103825283818151815260200191508051906020019080838360005b838110156101ba57808201518184015260208101905061019f565b50505050905090810190601f1680156101e75780820380516001836020036101000a031916815260200191505b509250505060405180910390f35b34801561020157600080fd5b506102446004803603602081101561021857600080fd5b81019080803573ffffffffffffffffffffffffffffffffffffffff16906020019092919050505061046f565b6040518082815260200191505060405180910390f35b34801561026657600080fd5b5061026f610487565b604051808273ffffffffffffffffffffffffffffffffffffffff1673ffffffffffffffffffffffffffffffffffffffff16815260200191505060405180910390f35b3480156102bd57600080fd5b5061030a600480360360408110156102d457600080fd5b81019080803573ffffffffffffffffffffffffffffffffffffffff169060200190929190803590602001909291905050506104ac565b005b34801561031857600080fd5b50610321610685565b005b34801561032f57600080fd5b50610338610716565b6040518080602001828103825283818151815260200191508051906020019080838360005b8381101561037857808201518184015260208101905061035d565b50505050905090810190601f1680156103a55780820380516001836020036101000a031916815260200191505b509250505060405180910390f35b3480156103bf57600080fd5b506103ec600480360360208110156103d657600080fd5b8101908080359060200190929190505050610753565b005b3480156103fa57600080fd5b506104036107b9565b005b34801561041157600080fd5b5061041a61080b565b6040518082815260200191505060405180910390f35b34801561043c57600080fd5b50610445610811565b6040518082815260200191505060405180910390f35b610463610817565b005b6060819050919050565b60016020528060005260406000206000915090505481565b6000809054906101000a900473ffffffffffffffffffffffffffffffffffffffff1681565b6000809054906101000a900473ffffffffffffffffffffffffffffffffffffffff1673ffffffffffffffffffffffffffffffffffffffff163373ffffffffffffffffffffffffffffffffffffffff1614151561050757610681565b80600160008473ffffffffffffffffffffffffffffffffffffffff1673ffffffffffffffffffffffffffffffffffffffff168152602001908152602001600020541415610680576000309050818173ffffffffffffffffffffffffffffffffffffffff163110151561067e578273ffffffffffffffffffffffffffffffffffffffff166108fc839081150290604051600060405180830381858888f193505050501580156105b9573d6000803e3d6000fd5b507fbb28353e4598c3b9199101a66e0989549b659a59a54d2c27fbb183f1932c8e6d8383604051808373ffffffffffffffffffffffffffffffffffffffff1673ffffffffffffffffffffffffffffffffffffffff1681526020018281526020019250505060405180910390a16000600160008573ffffffffffffffffffffffffffffffffffffffff1673ffffffffffffffffffffffffffffffffffffffff16815260200190815260200160002081905550600260008154809291906001900391905055505b505b5b5050565b6000809054906101000a900473ffffffffffffffffffffffffffffffffffffffff1673ffffffffffffffffffffffffffffffffffffffff163373ffffffffffffffffffffffffffffffffffffffff161415610714576000809054906101000a900473ffffffffffffffffffffffffffffffffffffffff1673ffffffffffffffffffffffffffffffffffffffff16ff5b565b60606040805190810160405280600b81526020017f48656c6c6f20576f726c64000000000000000000000000000000000000000000815250905090565b6000809054906101000a900473ffffffffffffffffffffffffffffffffffffffff1673ffffffffffffffffffffffffffffffffffffffff163373ffffffffffffffffffffffffffffffffffffffff161415156107ae576107b6565b806003819055505b50565b336000806101000a81548173ffffffffffffffffffffffffffffffffffffffff021916908373ffffffffffffffffffffffffffffffffffffffff16021790555060646003819055506000600281905550565b60035481565b60025481565b60035460025410151561082957600080fd5b34600160003373ffffffffffffffffffffffffffffffffffffffff1673ffffffffffffffffffffffffffffffffffffffff168152602001908152602001600020819055506002600081548092919060010191905055507fe1fffcc4923d04b559f4d29a8bfc6cda04eb5b0d3c460751c2402c5c5cc9109c3334604051808373ffffffffffffffffffffffffffffffffffffffff1673ffffffffffffffffffffffffffffffffffffffff1681526020018281526020019250505060405180910390a156fea165627a7a7230582098c395dfb956ba904b7e21b6789e0dabd38b03b2abfae3fa57fcffa64a86b7010029",
  "source": "pragma solidity ^0.5.0;\r\n\r\n\r\n\r\ncontract Conference {  // can be killed, so the owner gets sent the money in the end\r\n\r\n\r\n\r\n\taddress payable public organizer;\r\n\r\n\tmapping (address => uint) public registrantsPaid;\r\n\r\n\tuint public numRegistrants;\r\n\r\n\tuint public quota;\r\n\r\n\r\n\r\n\tevent Deposit(address _from, uint _amount); // so you can log the event\r\n\r\n\tevent Refund(address _to, uint _amount); // so you can log the event\r\n\r\n\r\n\r\n\tfunction conference() public{\r\n\r\n\t\torganizer = msg.sender;\t\t\r\n\r\n\t\tquota = 100;\r\n\r\n\t\tnumRegistrants = 0;\r\n\r\n\t}\r\n\r\n\r\n\r\n\tfunction buyTicket() public payable {\r\n\r\n\t\tif (numRegistrants >= quota) { \r\n\r\n\t\t\trevert(); // throw ensures funds will be returned\r\n\r\n\t\t}\r\n\r\n\t\tregistrantsPaid[msg.sender] = msg.value;\r\n\r\n\t\tnumRegistrants++;\r\n\r\n\t\temit Deposit(msg.sender, msg.value);\r\n\r\n\t}\r\n\r\n//say hello world\r\n  function say() public pure returns (string memory) {\r\n    return \"Hello World\";\r\n  }\r\n\r\n  //print name\r\n  function print(string memory name) public pure returns (string memory) {\r\n    return name;\r\n  }\r\n\r\n\r\n\tfunction changeQuota(uint newquota) public {\r\n\r\n\t\tif (msg.sender != organizer) { return; }\r\n\r\n\t\tquota = newquota;\r\n\r\n\t}\r\n\r\n\r\n\r\n\tfunction refundTicket(address payable recipient, uint amount) public {\r\n\r\n\t\tif (msg.sender != organizer) { return; }\r\n\r\n\t\tif (registrantsPaid[recipient] == amount) { \r\n\r\n\t\t\taddress myAddress = address(this);\r\n\r\n\t\t\tif (myAddress.balance >= amount) { \r\n\r\n\t\t\t\trecipient.transfer(amount);\r\n\r\n\t\t\t\temit Refund(recipient, amount);\r\n\r\n\t\t\t\tregistrantsPaid[recipient] = 0;\r\n\r\n\t\t\t\tnumRegistrants--;\r\n\r\n\t\t\t}\r\n\r\n\t\t}\r\n\r\n\t\treturn;\r\n\r\n\t}\r\n\r\n\r\n\r\n\tfunction destroy()public {\r\n\r\n\t\tif (msg.sender == organizer) { // without this funds could be locked in the contract forever!\r\n\r\n\t\t\tselfdestruct(organizer);\r\n\r\n\t\t}\r\n\r\n\t}\r\n\r\n}",
  "sourcePath": "C:/Users/86947/ethcode/contracts/Conference.sol",
  "compiler": {
    "name": "solc",
    "version": "0.5.0+commit.1d4f565a.Emscripten.clang"
  },
  "schemaVersion": "3.0.0",
  "updatedAt": "2018-12-31T08:57:52.011Z",
  "devdoc": {
    "methods": {}
  },
  "userdoc": {
    "methods": {}
  }
}